{
  "abi": [
    {
      "inputs": [
        {
          "internalType": "uint256",
          "name": "_totalSupply",
          "type": "uint256"
        }
      ],
      "stateMutability": "nonpayable",
      "type": "constructor"
    },
    {
      "anonymous": false,
      "inputs": [
        {
          "indexed": true,
          "internalType": "address",
          "name": "_from",
          "type": "address"
        },
        {
          "indexed": true,
          "internalType": "address",
          "name": "_to",
          "type": "address"
        },
        {
          "indexed": false,
          "internalType": "uint256",
          "name": "_value",
          "type": "uint256"
        }
      ],
      "name": "Transfer",
      "type": "event"
    },
    {
      "inputs": [
        {
          "internalType": "address",
          "name": "account",
          "type": "address"
        }
      ],
      "name": "balanceOf",
      "outputs": [
        {
          "internalType": "uint256",
          "name": "",
          "type": "uint256"
        }
      ],
      "stateMutability": "view",
      "type": "function"
    },
    {
      "inputs": [],
      "name": "name",
      "outputs": [
        {
          "internalType": "string",
          "name": "",
          "type": "string"
        }
      ],
      "stateMutability": "view",
      "type": "function"
    },
    {
      "inputs": [],
      "name": "owner",
      "outputs": [
        {
          "internalType": "address",
          "name": "",
          "type": "address"
        }
      ],
      "stateMutability": "view",
      "type": "function"
    },
    {
      "inputs": [],
      "name": "symbol",
      "outputs": [
        {
          "internalType": "string",
          "name": "",
          "type": "string"
        }
      ],
      "stateMutability": "view",
      "type": "function"
    },
    {
      "inputs": [],
      "name": "totalSupply",
      "outputs": [
        {
          "internalType": "uint256",
          "name": "",
          "type": "uint256"
        }
      ],
      "stateMutability": "view",
      "type": "function"
    },
    {
      "inputs": [
        {
          "internalType": "address",
          "name": "to",
          "type": "address"
        },
        {
          "internalType": "uint256",
          "name": "amount",
          "type": "uint256"
        }
      ],
      "name": "transfer",
      "outputs": [],
      "stateMutability": "nonpayable",
      "type": "function"
    }
  ],
  "bytecode": {
    "object": "0x60c0604052600860808190526726bc902a37b5b2b760c11b60a090815261002991600091906100b0565b506040805180820190915260038082526241424360e81b6020909201918252610054916001916100b0565b5034801561006157600080fd5b506040516105b13803806105b183398101604081905261008091610149565b600281905533600081815260046020526040902091909155600380546001600160a01b031916909117905561019c565b8280546100bc90610162565b90600052602060002090601f0160209004810192826100de5760008555610124565b82601f106100f757805160ff1916838001178555610124565b82800160010185558215610124579182015b82811115610124578251825591602001919060010190610109565b50610130929150610134565b5090565b5b808211156101305760008155600101610135565b60006020828403121561015b57600080fd5b5051919050565b600181811c9082168061017657607f821691505b60208210810361019657634e487b7160e01b600052602260045260246000fd5b50919050565b610406806101ab6000396000f3fe608060405234801561001057600080fd5b50600436106100625760003560e01c806306fdde031461006757806318160ddd1461008557806370a082311461009c5780638da5cb5b146100c557806395d89b41146100f0578063a9059cbb146100f8575b600080fd5b61006f61010d565b60405161007c9190610294565b60405180910390f35b61008e60025481565b60405190815260200161007c565b61008e6100aa366004610305565b6001600160a01b031660009081526004602052604090205490565b6003546100d8906001600160a01b031681565b6040516001600160a01b03909116815260200161007c565b61006f61019b565b61010b610106366004610327565b6101a8565b005b6000805461011a90610351565b80601f016020809104026020016040519081016040528092919081815260200182805461014690610351565b80156101935780601f1061016857610100808354040283529160200191610193565b820191906000526020600020905b81548152906001019060200180831161017657829003601f168201915b505050505081565b6001805461011a90610351565b336000908152600460205260409020548111156101ff5760405162461bcd60e51b81526020600482015260116024820152704e6f7420656e6f75676820746f6b656e7360781b604482015260640160405180910390fd5b336000908152600460205260408120805483929061021e9084906103a1565b90915550506001600160a01b0382166000908152600460205260408120805483929061024b9084906103b8565b90915550506040518181526001600160a01b0383169033907fddf252ad1be2c89b69c2b068fc378daa952ba7f163c4a11628f55a4df523b3ef9060200160405180910390a35050565b600060208083528351808285015260005b818110156102c1578581018301518582016040015282016102a5565b818111156102d3576000604083870101525b50601f01601f1916929092016040019392505050565b80356001600160a01b038116811461030057600080fd5b919050565b60006020828403121561031757600080fd5b610320826102e9565b9392505050565b6000806040838503121561033a57600080fd5b610343836102e9565b946020939093013593505050565b600181811c9082168061036557607f821691505b60208210810361038557634e487b7160e01b600052602260045260246000fd5b50919050565b634e487b7160e01b600052601160045260246000fd5b6000828210156103b3576103b361038b565b500390565b600082198211156103cb576103cb61038b565b50019056fea264697066735822122092ce02077cfc6a28624700a2349d8aad666c38d259eb4aa46e478d3ca04a9de664736f6c634300080d0033",
    "linkReferences": {}
  },
  "methodIdentifiers": {
    "balanceOf(address)": "70a08231",
    "name()": "06fdde03",
    "owner()": "8da5cb5b",
    "symbol()": "95d89b41",
    "totalSupply()": "18160ddd",
    "transfer(address,uint256)": "a9059cbb"
  },
  "id": 8
}