{
  "abi": [
    {
      "inputs": [
        {
          "internalType": "uint256",
          "name": "_totalSupply",
          "type": "uint256"
        }
      ],
      "stateMutability": "nonpayable",
      "type": "constructor"
    },
    {
      "anonymous": false,
      "inputs": [
        {
          "indexed": true,
          "internalType": "address",
          "name": "_from",
          "type": "address"
        },
        {
          "indexed": true,
          "internalType": "address",
          "name": "_to",
          "type": "address"
        },
        {
          "indexed": false,
          "internalType": "uint256",
          "name": "_value",
          "type": "uint256"
        }
      ],
      "name": "Transfer",
      "type": "event"
    },
    {
      "inputs": [
        {
          "internalType": "address",
          "name": "account",
          "type": "address"
        }
      ],
      "name": "balanceOf",
      "outputs": [
        {
          "internalType": "uint256",
          "name": "",
          "type": "uint256"
        }
      ],
      "stateMutability": "view",
      "type": "function"
    },
    {
      "inputs": [
        {
          "internalType": "address",
          "name": "",
          "type": "address"
        }
      ],
      "name": "balances",
      "outputs": [
        {
          "internalType": "uint256",
          "name": "",
          "type": "uint256"
        }
      ],
      "stateMutability": "view",
      "type": "function"
    },
    {
      "inputs": [],
      "name": "name",
      "outputs": [
        {
          "internalType": "string",
          "name": "",
          "type": "string"
        }
      ],
      "stateMutability": "view",
      "type": "function"
    },
    {
      "inputs": [],
      "name": "owner",
      "outputs": [
        {
          "internalType": "address",
          "name": "",
          "type": "address"
        }
      ],
      "stateMutability": "view",
      "type": "function"
    },
    {
      "inputs": [],
      "name": "symbol",
      "outputs": [
        {
          "internalType": "string",
          "name": "",
          "type": "string"
        }
      ],
      "stateMutability": "view",
      "type": "function"
    },
    {
      "inputs": [],
      "name": "totalSupply",
      "outputs": [
        {
          "internalType": "uint256",
          "name": "",
          "type": "uint256"
        }
      ],
      "stateMutability": "view",
      "type": "function"
    },
    {
      "inputs": [
        {
          "internalType": "address",
          "name": "to",
          "type": "address"
        },
        {
          "internalType": "uint256",
          "name": "amount",
          "type": "uint256"
        }
      ],
      "name": "transfer",
      "outputs": [],
      "stateMutability": "nonpayable",
      "type": "function"
    }
  ],
  "bytecode": {
    "object": "0x60c0604052600860808190526726bc902a37b5b2b760c11b60a090815261002991600091906100c3565b506040805180820190915260038082526241424360e81b6020909201918252610054916001916100c3565b5034801561006157600080fd5b506040516106723803806106728339810160408190526100809161015c565b61009281670de0b6b3a7640000610175565b600281905533600081815260046020526040902091909155600380546001600160a01b0319169091179055506101dc565b8280546100cf906101a2565b90600052602060002090601f0160209004810192826100f15760008555610137565b82601f1061010a57805160ff1916838001178555610137565b82800160010185558215610137579182015b8281111561013757825182559160200191906001019061011c565b50610143929150610147565b5090565b5b808211156101435760008155600101610148565b60006020828403121561016e57600080fd5b5051919050565b600081600019048311821515161561019d57634e487b7160e01b600052601160045260246000fd5b500290565b600181811c908216806101b657607f821691505b6020821081036101d657634e487b7160e01b600052602260045260246000fd5b50919050565b610487806101eb6000396000f3fe608060405234801561001057600080fd5b506004361061007d5760003560e01c806370a082311161005b57806370a08231146100d75780638da5cb5b1461010057806395d89b411461012b578063a9059cbb1461013357600080fd5b806306fdde031461008257806318160ddd146100a057806327e235e3146100b7575b600080fd5b61008a610148565b6040516100979190610315565b60405180910390f35b6100a960025481565b604051908152602001610097565b6100a96100c5366004610386565b60046020526000908152604090205481565b6100a96100e5366004610386565b6001600160a01b031660009081526004602052604090205490565b600354610113906001600160a01b031681565b6040516001600160a01b039091168152602001610097565b61008a6101d6565b6101466101413660046103a8565b6101e3565b005b60008054610155906103d2565b80601f0160208091040260200160405190810160405280929190818152602001828054610181906103d2565b80156101ce5780601f106101a3576101008083540402835291602001916101ce565b820191906000526020600020905b8154815290600101906020018083116101b157829003601f168201915b505050505081565b60018054610155906103d2565b6003546001600160a01b0316331461022d5760405162461bcd60e51b81526020600482015260086024820152673737ba27bbb732b960c11b60448201526064015b60405180910390fd5b336000908152600460205260409020548111156102805760405162461bcd60e51b81526020600482015260116024820152704e6f7420656e6f75676820746f6b656e7360781b6044820152606401610224565b336000908152600460205260408120805483929061029f908490610422565b90915550506001600160a01b038216600090815260046020526040812080548392906102cc908490610439565b90915550506040518181526001600160a01b0383169033907fddf252ad1be2c89b69c2b068fc378daa952ba7f163c4a11628f55a4df523b3ef9060200160405180910390a35050565b600060208083528351808285015260005b8181101561034257858101830151858201604001528201610326565b81811115610354576000604083870101525b50601f01601f1916929092016040019392505050565b80356001600160a01b038116811461038157600080fd5b919050565b60006020828403121561039857600080fd5b6103a18261036a565b9392505050565b600080604083850312156103bb57600080fd5b6103c48361036a565b946020939093013593505050565b600181811c908216806103e657607f821691505b60208210810361040657634e487b7160e01b600052602260045260246000fd5b50919050565b634e487b7160e01b600052601160045260246000fd5b6000828210156104345761043461040c565b500390565b6000821982111561044c5761044c61040c565b50019056fea2646970667358221220b9c4b5341cfcdb2a5a4928226c63aecabbb3c928a0879e768e342dbec0bcaec764736f6c634300080d0033",
    "linkReferences": {}
  },
  "methodIdentifiers": {
    "balanceOf(address)": "70a08231",
    "balances(address)": "27e235e3",
    "name()": "06fdde03",
    "owner()": "8da5cb5b",
    "symbol()": "95d89b41",
    "totalSupply()": "18160ddd",
    "transfer(address,uint256)": "a9059cbb"
  },
  "id": 7
}