{
  "abi": [
    {
      "inputs": [
        {
          "internalType": "uint256",
          "name": "_initialAmount",
          "type": "uint256"
        },
        {
          "internalType": "uint256",
          "name": "_blockReward",
          "type": "uint256"
        }
      ],
      "stateMutability": "nonpayable",
      "type": "constructor"
    },
    {
      "inputs": [
        {
          "internalType": "address",
          "name": "_investor",
          "type": "address"
        }
      ],
      "name": "addInvestor",
      "outputs": [],
      "stateMutability": "nonpayable",
      "type": "function"
    },
    {
      "inputs": [],
      "name": "blockNumber",
      "outputs": [
        {
          "internalType": "uint256",
          "name": "",
          "type": "uint256"
        }
      ],
      "stateMutability": "view",
      "type": "function"
    },
    {
      "inputs": [],
      "name": "blockReward",
      "outputs": [
        {
          "internalType": "uint256",
          "name": "",
          "type": "uint256"
        }
      ],
      "stateMutability": "view",
      "type": "function"
    },
    {
      "inputs": [],
      "name": "claimTokens",
      "outputs": [
        {
          "internalType": "uint256",
          "name": "payout",
          "type": "uint256"
        }
      ],
      "stateMutability": "nonpayable",
      "type": "function"
    },
    {
      "inputs": [],
      "name": "initialAmount",
      "outputs": [
        {
          "internalType": "uint256",
          "name": "",
          "type": "uint256"
        }
      ],
      "stateMutability": "view",
      "type": "function"
    },
    {
      "inputs": [
        {
          "internalType": "address",
          "name": "",
          "type": "address"
        }
      ],
      "name": "investors",
      "outputs": [
        {
          "internalType": "bool",
          "name": "isInvestor",
          "type": "bool"
        },
        {
          "internalType": "uint256",
          "name": "blockPaid",
          "type": "uint256"
        }
      ],
      "stateMutability": "view",
      "type": "function"
    },
    {
      "inputs": [
        {
          "internalType": "address",
          "name": "_investor",
          "type": "address"
        }
      ],
      "name": "isInvestor",
      "outputs": [
        {
          "internalType": "bool",
          "name": "",
          "type": "bool"
        }
      ],
      "stateMutability": "view",
      "type": "function"
    },
    {
      "inputs": [],
      "name": "numInvestors",
      "outputs": [
        {
          "internalType": "uint256",
          "name": "",
          "type": "uint256"
        }
      ],
      "stateMutability": "view",
      "type": "function"
    },
    {
      "inputs": [],
      "name": "token",
      "outputs": [
        {
          "internalType": "contract Token",
          "name": "",
          "type": "address"
        }
      ],
      "stateMutability": "view",
      "type": "function"
    }
  ],
  "bytecode": {
    "object": "0x60a060405234801561001057600080fd5b50604051610d82380380610d8283398101604081905261002f916100a3565b4360025560808290526001819055604051829061004b90610096565b908152602001604051809103906000f08015801561006d573d6000803e3d6000fd5b50600480546001600160a01b0319166001600160a01b0392909216919091179055506100c79050565b6106728061071083390190565b600080604083850312156100b657600080fd5b505080516020909101519092909150565b6080516106206100f06000396000818161017a015281816103e0015261043401526106206000f3fe608060405234801561001057600080fd5b50600436106100935760003560e01c80636f7bc9be116100665780636f7bc9be146100ce578063cee2a9cf14610112578063e641bde114610135578063fc0c546a1461014a578063fc1ed4371461017557600080fd5b80630ac168a114610098578063132ae5e9146100b457806348c54b9d146100bd57806357e871e7146100c5575b600080fd5b6100a160015481565b6040519081526020015b60405180910390f35b6100a160005481565b6100a161019c565b6100a160025481565b6100fb6100dc3660046104d6565b6003602052600090815260409020805460019091015460ff9091169082565b6040805192151583526020830191909152016100ab565b6101256101203660046104d6565b6102ae565b60405190151581526020016100ab565b6101486101433660046104d6565b6102d1565b005b60045461015d906001600160a01b031681565b6040516001600160a01b0390911681526020016100ab565b6100a17f000000000000000000000000000000000000000000000000000000000000000081565b3360009081526003602052604081205460ff166101ee5760405162461bcd60e51b815260206004820152600b60248201526a3737ba24b73b32b9ba37b960a91b60448201526064015b60405180910390fd5b3360009081526003602052604090206001015443116102395760405162461bcd60e51b81526020600482015260076024820152663a37b7a9b7b7b760c91b60448201526064016101e5565b610241610364565b6004805460405163a9059cbb60e01b81523392810192909252602482018390529192506001600160a01b039091169063a9059cbb90604401600060405180830381600087803b15801561029357600080fd5b505af11580156102a7573d6000803e3d6000fd5b5050505090565b6001600160a01b03811660009081526003602052604081205460ff165b92915050565b6001600160a01b03811660009081526003602052604090205460ff161561032c5760405162461bcd60e51b815260206004820152600f60248201526e30b63932b0b23ca4b73b32b9ba37b960891b60448201526064016101e5565b6001600160a01b0381166000908152600360205260408120805460ff191660011790558054908061035c8361051c565b919050555050565b600080600254436103759190610535565b436002819055336000908152600360205260409020600101559050610399816103a4565b600181905592915050565b600061041d604051806040016040528060068152602001651c995dd85c9960d21b815250836000546103e8436103da919061054c565b610404907f000000000000000000000000000000000000000000000000000000000000000061056e565b61040e919061054c565b6104189190610535565b61046c565b600054829061042e6103e84361054c565b610458907f000000000000000000000000000000000000000000000000000000000000000061056e565b610462919061054c565b6102cb9190610535565b6104b1828260405160240161048292919061058d565b60408051601f198184030181529190526020810180516001600160e01b0316632d839cb360e21b1790526104b5565b5050565b80516a636f6e736f6c652e6c6f67602083016000808483855afa5050505050565b6000602082840312156104e857600080fd5b81356001600160a01b03811681146104ff57600080fd5b9392505050565b634e487b7160e01b600052601160045260246000fd5b60006001820161052e5761052e610506565b5060010190565b60008282101561054757610547610506565b500390565b60008261056957634e487b7160e01b600052601260045260246000fd5b500490565b600081600019048311821515161561058857610588610506565b500290565b604081526000835180604084015260005b818110156105bb576020818701810151606086840101520161059e565b818111156105cd576000606083860101525b50602083019390935250601f91909101601f19160160600191905056fea2646970667358221220bf25c620f2f9624bfc45d2f02b1849818c4e39da8bfcf09fa0f565d6917403bf64736f6c634300080d003360c0604052600860808190526726bc902a37b5b2b760c11b60a090815261002991600091906100c3565b506040805180820190915260038082526241424360e81b6020909201918252610054916001916100c3565b5034801561006157600080fd5b506040516106723803806106728339810160408190526100809161015c565b61009281670de0b6b3a7640000610175565b600281905533600081815260046020526040902091909155600380546001600160a01b0319169091179055506101dc565b8280546100cf906101a2565b90600052602060002090601f0160209004810192826100f15760008555610137565b82601f1061010a57805160ff1916838001178555610137565b82800160010185558215610137579182015b8281111561013757825182559160200191906001019061011c565b50610143929150610147565b5090565b5b808211156101435760008155600101610148565b60006020828403121561016e57600080fd5b5051919050565b600081600019048311821515161561019d57634e487b7160e01b600052601160045260246000fd5b500290565b600181811c908216806101b657607f821691505b6020821081036101d657634e487b7160e01b600052602260045260246000fd5b50919050565b610487806101eb6000396000f3fe608060405234801561001057600080fd5b506004361061007d5760003560e01c806370a082311161005b57806370a08231146100d75780638da5cb5b1461010057806395d89b411461012b578063a9059cbb1461013357600080fd5b806306fdde031461008257806318160ddd146100a057806327e235e3146100b7575b600080fd5b61008a610148565b6040516100979190610315565b60405180910390f35b6100a960025481565b604051908152602001610097565b6100a96100c5366004610386565b60046020526000908152604090205481565b6100a96100e5366004610386565b6001600160a01b031660009081526004602052604090205490565b600354610113906001600160a01b031681565b6040516001600160a01b039091168152602001610097565b61008a6101d6565b6101466101413660046103a8565b6101e3565b005b60008054610155906103d2565b80601f0160208091040260200160405190810160405280929190818152602001828054610181906103d2565b80156101ce5780601f106101a3576101008083540402835291602001916101ce565b820191906000526020600020905b8154815290600101906020018083116101b157829003601f168201915b505050505081565b60018054610155906103d2565b6003546001600160a01b0316331461022d5760405162461bcd60e51b81526020600482015260086024820152673737ba27bbb732b960c11b60448201526064015b60405180910390fd5b336000908152600460205260409020548111156102805760405162461bcd60e51b81526020600482015260116024820152704e6f7420656e6f75676820746f6b656e7360781b6044820152606401610224565b336000908152600460205260408120805483929061029f908490610422565b90915550506001600160a01b038216600090815260046020526040812080548392906102cc908490610439565b90915550506040518181526001600160a01b0383169033907fddf252ad1be2c89b69c2b068fc378daa952ba7f163c4a11628f55a4df523b3ef9060200160405180910390a35050565b600060208083528351808285015260005b8181101561034257858101830151858201604001528201610326565b81811115610354576000604083870101525b50601f01601f1916929092016040019392505050565b80356001600160a01b038116811461038157600080fd5b919050565b60006020828403121561039857600080fd5b6103a18261036a565b9392505050565b600080604083850312156103bb57600080fd5b6103c48361036a565b946020939093013593505050565b600181811c908216806103e657607f821691505b60208210810361040657634e487b7160e01b600052602260045260246000fd5b50919050565b634e487b7160e01b600052601160045260246000fd5b6000828210156104345761043461040c565b500390565b6000821982111561044c5761044c61040c565b50019056fea2646970667358221220b9c4b5341cfcdb2a5a4928226c63aecabbb3c928a0879e768e342dbec0bcaec764736f6c634300080d0033",
    "linkReferences": {}
  },
  "methodIdentifiers": {
    "addInvestor(address)": "e641bde1",
    "blockNumber()": "57e871e7",
    "blockReward()": "0ac168a1",
    "claimTokens()": "48c54b9d",
    "initialAmount()": "fc1ed437",
    "investors(address)": "6f7bc9be",
    "isInvestor(address)": "cee2a9cf",
    "numInvestors()": "132ae5e9",
    "token()": "fc0c546a"
  },
  "id": 6
}