{
  "abi": [
    {
      "inputs": [
        {
          "internalType": "uint256",
          "name": "_initialAmount",
          "type": "uint256"
        },
        {
          "internalType": "uint256",
          "name": "_blockReward",
          "type": "uint256"
        }
      ],
      "stateMutability": "nonpayable",
      "type": "constructor"
    },
    {
      "inputs": [
        {
          "internalType": "address",
          "name": "_investor",
          "type": "address"
        }
      ],
      "name": "addInvestor",
      "outputs": [],
      "stateMutability": "nonpayable",
      "type": "function"
    },
    {
      "inputs": [],
      "name": "blockNumber",
      "outputs": [
        {
          "internalType": "uint256",
          "name": "",
          "type": "uint256"
        }
      ],
      "stateMutability": "view",
      "type": "function"
    },
    {
      "inputs": [],
      "name": "blockReward",
      "outputs": [
        {
          "internalType": "uint256",
          "name": "",
          "type": "uint256"
        }
      ],
      "stateMutability": "view",
      "type": "function"
    },
    {
      "inputs": [],
      "name": "claimTokens",
      "outputs": [],
      "stateMutability": "nonpayable",
      "type": "function"
    },
    {
      "inputs": [],
      "name": "initialAmount",
      "outputs": [
        {
          "internalType": "uint256",
          "name": "",
          "type": "uint256"
        }
      ],
      "stateMutability": "view",
      "type": "function"
    },
    {
      "inputs": [
        {
          "internalType": "address",
          "name": "",
          "type": "address"
        }
      ],
      "name": "investors",
      "outputs": [
        {
          "internalType": "bool",
          "name": "",
          "type": "bool"
        }
      ],
      "stateMutability": "view",
      "type": "function"
    },
    {
      "inputs": [],
      "name": "numInvestors",
      "outputs": [
        {
          "internalType": "uint256",
          "name": "",
          "type": "uint256"
        }
      ],
      "stateMutability": "view",
      "type": "function"
    },
    {
      "inputs": [],
      "name": "token",
      "outputs": [
        {
          "internalType": "contract Token",
          "name": "",
          "type": "address"
        }
      ],
      "stateMutability": "view",
      "type": "function"
    }
  ],
  "bytecode": {
    "object": "0x60c060405234801561001057600080fd5b50604051610c6e380380610c6e83398101604081905261002f9161008b565b608082905260405182906100429061007e565b908152602001604051809103906000f080158015610064573d6000803e3d6000fd5b506001600160a01b031660a05243600255600155506100af565b6105b1806106bd83390190565b6000806040838503121561009e57600080fd5b505080516020909101519092909150565b60805160a0516105db6100e260003960008181610110015261020001526000818161014f015261039901526105db6000f3fe608060405234801561001057600080fd5b50600436106100885760003560e01c80636f7bc9be1161005b5780636f7bc9be146100c5578063e641bde1146100f8578063fc0c546a1461010b578063fc1ed4371461014a57600080fd5b80630ac168a11461008d578063132ae5e9146100a957806348c54b9d146100b257806357e871e7146100bc575b600080fd5b61009660015481565b6040519081526020015b60405180910390f35b61009660005481565b6100ba610171565b005b61009660025481565b6100e86100d3366004610499565b60036020526000908152604090205460ff1681565b60405190151581526020016100a0565b6100ba610106366004610499565b610296565b6101327f000000000000000000000000000000000000000000000000000000000000000081565b6040516001600160a01b0390911681526020016100a0565b6100967f000000000000000000000000000000000000000000000000000000000000000081565b3360009081526003602052604090205460ff166101c35760405162461bcd60e51b815260206004820152600b60248201526a3737ba24b73b32b9ba37b960a91b60448201526064015b60405180910390fd5b60025443116101fe5760405162461bcd60e51b81526020600482015260076024820152663a37b7a9b7b7b760c91b60448201526064016101ba565b7f00000000000000000000000000000000000000000000000000000000000000006001600160a01b031663a9059cbb33610236610329565b6040516001600160e01b031960e085901b1681526001600160a01b0390921660048301526024820152604401600060405180830381600087803b15801561027c57600080fd5b505af1158015610290573d6000803e3d6000fd5b50505050565b6001600160a01b03811660009081526003602052604090205460ff16156102f15760405162461bcd60e51b815260206004820152600f60248201526e30b63932b0b23ca4b73b32b9ba37b960891b60448201526064016101ba565b6001600160a01b0381166000908152600360205260408120805460ff1916600117905580549080610321836104df565b919050555050565b6000806002544361033a91906104f8565b905061036e60405180604001604052806011815260200170213637b1b5a73ab6b132b91e9e9e9e9e9f60791b8152506103ce565b61037743610414565b600061038282610459565b43600255600181905560005490915081906103bd907f000000000000000000000000000000000000000000000000000000000000000061050f565b6103c79190610531565b9250505090565b610411816040516024016103e29190610550565b60408051601f198184030181529190526020810180516001600160e01b031663104c13eb60e21b179052610478565b50565b6104118160405160240161042a91815260200190565b60408051601f198184030181529190526020810180516001600160e01b031663f82c50f160e01b179052610478565b6000816104686103e84361050f565b61047291906104f8565b92915050565b80516a636f6e736f6c652e6c6f67602083016000808483855afa5050505050565b6000602082840312156104ab57600080fd5b81356001600160a01b03811681146104c257600080fd5b9392505050565b634e487b7160e01b600052601160045260246000fd5b6000600182016104f1576104f16104c9565b5060010190565b60008282101561050a5761050a6104c9565b500390565b60008261052c57634e487b7160e01b600052601260045260246000fd5b500490565b600081600019048311821515161561054b5761054b6104c9565b500290565b600060208083528351808285015260005b8181101561057d57858101830151858201604001528201610561565b8181111561058f576000604083870101525b50601f01601f191692909201604001939250505056fea2646970667358221220fd3bd2bdc416aad3b3973c7a618d5bd31901e884f8f5d355b48ca453ba170ec264736f6c634300080d003360c0604052600860808190526726bc902a37b5b2b760c11b60a090815261002991600091906100b0565b506040805180820190915260038082526241424360e81b6020909201918252610054916001916100b0565b5034801561006157600080fd5b506040516105b13803806105b183398101604081905261008091610149565b600281905533600081815260046020526040902091909155600380546001600160a01b031916909117905561019c565b8280546100bc90610162565b90600052602060002090601f0160209004810192826100de5760008555610124565b82601f106100f757805160ff1916838001178555610124565b82800160010185558215610124579182015b82811115610124578251825591602001919060010190610109565b50610130929150610134565b5090565b5b808211156101305760008155600101610135565b60006020828403121561015b57600080fd5b5051919050565b600181811c9082168061017657607f821691505b60208210810361019657634e487b7160e01b600052602260045260246000fd5b50919050565b610406806101ab6000396000f3fe608060405234801561001057600080fd5b50600436106100625760003560e01c806306fdde031461006757806318160ddd1461008557806370a082311461009c5780638da5cb5b146100c557806395d89b41146100f0578063a9059cbb146100f8575b600080fd5b61006f61010d565b60405161007c9190610294565b60405180910390f35b61008e60025481565b60405190815260200161007c565b61008e6100aa366004610305565b6001600160a01b031660009081526004602052604090205490565b6003546100d8906001600160a01b031681565b6040516001600160a01b03909116815260200161007c565b61006f61019b565b61010b610106366004610327565b6101a8565b005b6000805461011a90610351565b80601f016020809104026020016040519081016040528092919081815260200182805461014690610351565b80156101935780601f1061016857610100808354040283529160200191610193565b820191906000526020600020905b81548152906001019060200180831161017657829003601f168201915b505050505081565b6001805461011a90610351565b336000908152600460205260409020548111156101ff5760405162461bcd60e51b81526020600482015260116024820152704e6f7420656e6f75676820746f6b656e7360781b604482015260640160405180910390fd5b336000908152600460205260408120805483929061021e9084906103a1565b90915550506001600160a01b0382166000908152600460205260408120805483929061024b9084906103b8565b90915550506040518181526001600160a01b0383169033907fddf252ad1be2c89b69c2b068fc378daa952ba7f163c4a11628f55a4df523b3ef9060200160405180910390a35050565b600060208083528351808285015260005b818110156102c1578581018301518582016040015282016102a5565b818111156102d3576000604083870101525b50601f01601f1916929092016040019392505050565b80356001600160a01b038116811461030057600080fd5b919050565b60006020828403121561031757600080fd5b610320826102e9565b9392505050565b6000806040838503121561033a57600080fd5b610343836102e9565b946020939093013593505050565b600181811c9082168061036557607f821691505b60208210810361038557634e487b7160e01b600052602260045260246000fd5b50919050565b634e487b7160e01b600052601160045260246000fd5b6000828210156103b3576103b361038b565b500390565b600082198211156103cb576103cb61038b565b50019056fea264697066735822122092ce02077cfc6a28624700a2349d8aad666c38d259eb4aa46e478d3ca04a9de664736f6c634300080d0033",
    "linkReferences": {}
  },
  "methodIdentifiers": {
    "addInvestor(address)": "e641bde1",
    "blockNumber()": "57e871e7",
    "blockReward()": "0ac168a1",
    "claimTokens()": "48c54b9d",
    "initialAmount()": "fc1ed437",
    "investors(address)": "6f7bc9be",
    "numInvestors()": "132ae5e9",
    "token()": "fc0c546a"
  },
  "id": 6
}